{
	"contracts/overflow-batch-demo/BEC_Fixed.sol": {
		"BEC_Vuln": {
			"abi": [
				{
					"inputs": [
						{
							"internalType": "address[]",
							"name": "_receivers",
							"type": "address[]"
						},
						{
							"internalType": "uint256",
							"name": "_value",
							"type": "uint256"
						}
					],
					"name": "batchTransfer",
					"outputs": [
						{
							"internalType": "bool",
							"name": "",
							"type": "bool"
						}
					],
					"stateMutability": "payable",
					"type": "function"
				},
				{
					"inputs": [],
					"name": "deposit",
					"outputs": [],
					"stateMutability": "payable",
					"type": "function"
				},
				{
					"inputs": [],
					"name": "getBalance",
					"outputs": [
						{
							"internalType": "uint256",
							"name": "",
							"type": "uint256"
						}
					],
					"stateMutability": "view",
					"type": "function"
				}
			],
			"devdoc": {
				"methods": {}
			},
			"evm": {
				"assembly": "    /* \"contracts/overflow-batch-demo/BEC_Fixed.sol\":133:1047  contract BEC_Vuln {\r... */\n  mstore(0x40, 0x80)\n  callvalue\n    /* \"--CODEGEN--\":5:14   */\n  dup1\n    /* \"--CODEGEN--\":2:4   */\n  iszero\n  tag_1\n  jumpi\n    /* \"--CODEGEN--\":27:28   */\n  0x00\n    /* \"--CODEGEN--\":24:25   */\n  dup1\n    /* \"--CODEGEN--\":17:29   */\n  revert\n    /* \"--CODEGEN--\":2:4   */\ntag_1:\n    /* \"contracts/overflow-batch-demo/BEC_Fixed.sol\":133:1047  contract BEC_Vuln {\r... */\n  pop\n  dataSize(sub_0)\n  dup1\n  dataOffset(sub_0)\n  0x00\n  codecopy\n  0x00\n  return\nstop\n\nsub_0: assembly {\n        /* \"contracts/overflow-batch-demo/BEC_Fixed.sol\":133:1047  contract BEC_Vuln {\r... */\n      mstore(0x40, 0x80)\n      jumpi(tag_1, lt(calldatasize, 0x04))\n      shr(0xe0, calldataload(0x00))\n      dup1\n      0x12065fe0\n      eq\n      tag_2\n      jumpi\n      dup1\n      0x83f12fec\n      eq\n      tag_3\n      jumpi\n      dup1\n      0xd0e30db0\n      eq\n      tag_4\n      jumpi\n    tag_1:\n        /* \"--CODEGEN--\":12:13   */\n      0x00\n        /* \"--CODEGEN--\":9:10   */\n      dup1\n        /* \"--CODEGEN--\":2:14   */\n      revert\n        /* \"contracts/overflow-batch-demo/BEC_Fixed.sol\":955:1044  function getBalance() public view returns (uint) {\r... */\n    tag_2:\n      callvalue\n        /* \"--CODEGEN--\":5:14   */\n      dup1\n        /* \"--CODEGEN--\":2:4   */\n      iszero\n      tag_5\n      jumpi\n        /* \"--CODEGEN--\":27:28   */\n      0x00\n        /* \"--CODEGEN--\":24:25   */\n      dup1\n        /* \"--CODEGEN--\":17:29   */\n      revert\n        /* \"--CODEGEN--\":2:4   */\n    tag_5:\n        /* \"contracts/overflow-batch-demo/BEC_Fixed.sol\":955:1044  function getBalance() public view returns (uint) {\r... */\n      pop\n      tag_6\n      tag_7\n      jump\t// in\n    tag_6:\n      mload(0x40)\n      dup1\n      dup3\n      dup2\n      mstore\n      0x20\n      add\n      swap2\n      pop\n      pop\n      mload(0x40)\n      dup1\n      swap2\n      sub\n      swap1\n      return\n        /* \"contracts/overflow-batch-demo/BEC_Fixed.sol\":206:863  function batchTransfer(address[] memory _receivers, uint256 _value) public payable returns (bool) {\r... */\n    tag_3:\n      tag_8\n      0x04\n      dup1\n      calldatasize\n      sub\n        /* \"--CODEGEN--\":15:17   */\n      0x40\n        /* \"--CODEGEN--\":10:13   */\n      dup2\n        /* \"--CODEGEN--\":7:18   */\n      lt\n        /* \"--CODEGEN--\":4:6   */\n      iszero\n      tag_9\n      jumpi\n        /* \"--CODEGEN--\":31:32   */\n      0x00\n        /* \"--CODEGEN--\":28:29   */\n      dup1\n        /* \"--CODEGEN--\":21:33   */\n      revert\n        /* \"--CODEGEN--\":4:6   */\n    tag_9:\n        /* \"contracts/overflow-batch-demo/BEC_Fixed.sol\":206:863  function batchTransfer(address[] memory _receivers, uint256 _value) public payable returns (bool) {\r... */\n      dup2\n      add\n      swap1\n      dup1\n      dup1\n      calldataload\n      swap1\n      0x20\n      add\n      swap1\n        /* \"--CODEGEN--\":27:38   */\n      0x0100000000\n        /* \"--CODEGEN--\":14:25   */\n      dup2\n        /* \"--CODEGEN--\":11:39   */\n      gt\n        /* \"--CODEGEN--\":8:10   */\n      iszero\n      tag_10\n      jumpi\n        /* \"--CODEGEN--\":52:53   */\n      0x00\n        /* \"--CODEGEN--\":49:50   */\n      dup1\n        /* \"--CODEGEN--\":42:54   */\n      revert\n        /* \"--CODEGEN--\":8:10   */\n    tag_10:\n        /* \"contracts/overflow-batch-demo/BEC_Fixed.sol\":206:863  function batchTransfer(address[] memory _receivers, uint256 _value) public payable returns (bool) {\r... */\n      dup3\n      add\n        /* \"--CODEGEN--\":41:50   */\n      dup4\n        /* \"--CODEGEN--\":34:38   */\n      0x20\n        /* \"--CODEGEN--\":18:32   */\n      dup3\n        /* \"--CODEGEN--\":14:39   */\n      add\n        /* \"--CODEGEN--\":11:51   */\n      gt\n        /* \"--CODEGEN--\":8:10   */\n      iszero\n      tag_11\n      jumpi\n        /* \"--CODEGEN--\":64:65   */\n      0x00\n        /* \"--CODEGEN--\":61:62   */\n      dup1\n        /* \"--CODEGEN--\":54:66   */\n      revert\n        /* \"--CODEGEN--\":8:10   */\n    tag_11:\n        /* \"contracts/overflow-batch-demo/BEC_Fixed.sol\":206:863  function batchTransfer(address[] memory _receivers, uint256 _value) public payable returns (bool) {\r... */\n      dup1\n      calldataload\n      swap1\n      0x20\n      add\n      swap2\n        /* \"--CODEGEN--\":101:110   */\n      dup5\n        /* \"--CODEGEN--\":95:97   */\n      0x20\n        /* \"--CODEGEN--\":81:93   */\n      dup4\n        /* \"--CODEGEN--\":77:98   */\n      mul\n        /* \"--CODEGEN--\":67:75   */\n      dup5\n        /* \"--CODEGEN--\":63:99   */\n      add\n        /* \"--CODEGEN--\":60:111   */\n      gt\n        /* \"--CODEGEN--\":39:50   */\n      0x0100000000\n        /* \"--CODEGEN--\":25:37   */\n      dup4\n        /* \"--CODEGEN--\":22:51   */\n      gt\n        /* \"--CODEGEN--\":11:119   */\n      or\n        /* \"--CODEGEN--\":8:10   */\n      iszero\n      tag_12\n      jumpi\n        /* \"--CODEGEN--\":132:133   */\n      0x00\n        /* \"--CODEGEN--\":129:130   */\n      dup1\n        /* \"--CODEGEN--\":122:134   */\n      revert\n        /* \"--CODEGEN--\":8:10   */\n    tag_12:\n        /* \"contracts/overflow-batch-demo/BEC_Fixed.sol\":206:863  function batchTransfer(address[] memory _receivers, uint256 _value) public payable returns (bool) {\r... */\n      swap2\n      swap1\n      dup1\n      dup1\n      0x20\n      mul\n      0x20\n      add\n      mload(0x40)\n      swap1\n      dup2\n      add\n      0x40\n      mstore\n      dup1\n      swap4\n      swap3\n      swap2\n      swap1\n      dup2\n      dup2\n      mstore\n      0x20\n      add\n      dup4\n      dup4\n      0x20\n      mul\n        /* \"--CODEGEN--\":30:33   */\n      dup1\n        /* \"--CODEGEN--\":22:28   */\n      dup3\n        /* \"--CODEGEN--\":14:20   */\n      dup5\n        /* \"--CODEGEN--\":1:34   */\n      calldatacopy\n        /* \"--CODEGEN--\":99:100   */\n      0x00\n        /* \"--CODEGEN--\":93:96   */\n      dup2\n        /* \"--CODEGEN--\":85:91   */\n      dup5\n        /* \"--CODEGEN--\":81:97   */\n      add\n        /* \"--CODEGEN--\":74:101   */\n      mstore\n        /* \"--CODEGEN--\":137:141   */\n      0x1f\n        /* \"--CODEGEN--\":133:142   */\n      not\n        /* \"--CODEGEN--\":126:130   */\n      0x1f\n        /* \"--CODEGEN--\":121:124   */\n      dup3\n        /* \"--CODEGEN--\":117:131   */\n      add\n        /* \"--CODEGEN--\":113:143   */\n      and\n        /* \"--CODEGEN--\":106:143   */\n      swap1\n      pop\n        /* \"--CODEGEN--\":169:172   */\n      dup1\n        /* \"--CODEGEN--\":161:167   */\n      dup4\n        /* \"--CODEGEN--\":157:173   */\n      add\n        /* \"--CODEGEN--\":147:173   */\n      swap3\n      pop\n        /* \"contracts/overflow-batch-demo/BEC_Fixed.sol\":206:863  function batchTransfer(address[] memory _receivers, uint256 _value) public payable returns (bool) {\r... */\n      pop\n      pop\n      pop\n      pop\n      pop\n      pop\n      swap2\n      swap3\n      swap2\n      swap3\n      swap1\n      dup1\n      calldataload\n      swap1\n      0x20\n      add\n      swap1\n      swap3\n      swap2\n      swap1\n      pop\n      pop\n      pop\n      tag_13\n      jump\t// in\n    tag_8:\n      mload(0x40)\n      dup1\n      dup3\n      iszero\n      iszero\n      iszero\n      iszero\n      dup2\n      mstore\n      0x20\n      add\n      swap2\n      pop\n      pop\n      mload(0x40)\n      dup1\n      swap2\n      sub\n      swap1\n      return\n        /* \"contracts/overflow-batch-demo/BEC_Fixed.sol\":869:949  function deposit() public payable {\r... */\n    tag_4:\n      tag_14\n      tag_15\n      jump\t// in\n    tag_14:\n      stop\n        /* \"contracts/overflow-batch-demo/BEC_Fixed.sol\":955:1044  function getBalance() public view returns (uint) {\r... */\n    tag_7:\n        /* \"contracts/overflow-batch-demo/BEC_Fixed.sol\":998:1002  uint */\n      0x00\n        /* \"contracts/overflow-batch-demo/BEC_Fixed.sol\":1018:1026  balances */\n      dup1\n        /* \"contracts/overflow-batch-demo/BEC_Fixed.sol\":1018:1038  balances[msg.sender] */\n      0x00\n        /* \"contracts/overflow-batch-demo/BEC_Fixed.sol\":1027:1037  msg.sender */\n      caller\n        /* \"contracts/overflow-batch-demo/BEC_Fixed.sol\":1018:1038  balances[msg.sender] */\n      0xffffffffffffffffffffffffffffffffffffffff\n      and\n      0xffffffffffffffffffffffffffffffffffffffff\n      and\n      dup2\n      mstore\n      0x20\n      add\n      swap1\n      dup2\n      mstore\n      0x20\n      add\n      0x00\n      keccak256\n      sload\n        /* \"contracts/overflow-batch-demo/BEC_Fixed.sol\":1011:1038  return balances[msg.sender] */\n      swap1\n      pop\n        /* \"contracts/overflow-batch-demo/BEC_Fixed.sol\":955:1044  function getBalance() public view returns (uint) {\r... */\n      swap1\n      jump\t// out\n        /* \"contracts/overflow-batch-demo/BEC_Fixed.sol\":206:863  function batchTransfer(address[] memory _receivers, uint256 _value) public payable returns (bool) {\r... */\n    tag_13:\n        /* \"contracts/overflow-batch-demo/BEC_Fixed.sol\":298:302  bool */\n      0x00\n        /* \"contracts/overflow-batch-demo/BEC_Fixed.sol\":311:319  uint cnt */\n      dup1\n        /* \"contracts/overflow-batch-demo/BEC_Fixed.sol\":322:332  _receivers */\n      dup4\n        /* \"contracts/overflow-batch-demo/BEC_Fixed.sol\":322:339  _receivers.length */\n      mload\n        /* \"contracts/overflow-batch-demo/BEC_Fixed.sol\":311:339  uint cnt = _receivers.length */\n      swap1\n      pop\n        /* \"contracts/overflow-batch-demo/BEC_Fixed.sol\":346:360  uint256 amount */\n      0x00\n        /* \"contracts/overflow-batch-demo/BEC_Fixed.sol\":363:397  SafeMath.mul(uint256(cnt), _value) */\n      tag_18\n        /* \"contracts/overflow-batch-demo/BEC_Fixed.sol\":384:387  cnt */\n      dup3\n        /* \"contracts/overflow-batch-demo/BEC_Fixed.sol\":390:396  _value */\n      dup6\n        /* \"contracts/overflow-batch-demo/BEC_Fixed.sol\":363:375  SafeMath.mul */\n      tag_19\n        /* \"contracts/overflow-batch-demo/BEC_Fixed.sol\":363:397  SafeMath.mul(uint256(cnt), _value) */\n      jump\t// in\n    tag_18:\n        /* \"contracts/overflow-batch-demo/BEC_Fixed.sol\":346:397  uint256 amount = SafeMath.mul(uint256(cnt), _value) */\n      swap1\n      pop\n        /* \"contracts/overflow-batch-demo/BEC_Fixed.sol\":418:419  0 */\n      0x00\n        /* \"contracts/overflow-batch-demo/BEC_Fixed.sol\":412:415  cnt */\n      dup3\n        /* \"contracts/overflow-batch-demo/BEC_Fixed.sol\":412:419  cnt > 0 */\n      gt\n        /* \"contracts/overflow-batch-demo/BEC_Fixed.sol\":412:432  cnt > 0 && cnt <= 20 */\n      dup1\n      iszero\n      tag_20\n      jumpi\n      pop\n        /* \"contracts/overflow-batch-demo/BEC_Fixed.sol\":430:432  20 */\n      0x14\n        /* \"contracts/overflow-batch-demo/BEC_Fixed.sol\":423:426  cnt */\n      dup3\n        /* \"contracts/overflow-batch-demo/BEC_Fixed.sol\":423:432  cnt <= 20 */\n      gt\n      iszero\n        /* \"contracts/overflow-batch-demo/BEC_Fixed.sol\":412:432  cnt > 0 && cnt <= 20 */\n    tag_20:\n        /* \"contracts/overflow-batch-demo/BEC_Fixed.sol\":404:433  require(cnt > 0 && cnt <= 20) */\n      tag_21\n      jumpi\n        /* \"--CODEGEN--\":12:13   */\n      0x00\n        /* \"--CODEGEN--\":9:10   */\n      dup1\n        /* \"--CODEGEN--\":2:14   */\n      revert\n        /* \"contracts/overflow-batch-demo/BEC_Fixed.sol\":404:433  require(cnt > 0 && cnt <= 20) */\n    tag_21:\n        /* \"contracts/overflow-batch-demo/BEC_Fixed.sol\":457:458  0 */\n      0x00\n        /* \"contracts/overflow-batch-demo/BEC_Fixed.sol\":448:454  _value */\n      dup5\n        /* \"contracts/overflow-batch-demo/BEC_Fixed.sol\":448:458  _value > 0 */\n      gt\n        /* \"contracts/overflow-batch-demo/BEC_Fixed.sol\":448:492  _value > 0 && balances[msg.sender] >= amount */\n      dup1\n      iszero\n      tag_22\n      jumpi\n      pop\n        /* \"contracts/overflow-batch-demo/BEC_Fixed.sol\":486:492  amount */\n      dup1\n        /* \"contracts/overflow-batch-demo/BEC_Fixed.sol\":462:470  balances */\n      0x00\n        /* \"contracts/overflow-batch-demo/BEC_Fixed.sol\":462:482  balances[msg.sender] */\n      dup1\n        /* \"contracts/overflow-batch-demo/BEC_Fixed.sol\":471:481  msg.sender */\n      caller\n        /* \"contracts/overflow-batch-demo/BEC_Fixed.sol\":462:482  balances[msg.sender] */\n      0xffffffffffffffffffffffffffffffffffffffff\n      and\n      0xffffffffffffffffffffffffffffffffffffffff\n      and\n      dup2\n      mstore\n      0x20\n      add\n      swap1\n      dup2\n      mstore\n      0x20\n      add\n      0x00\n      keccak256\n      sload\n        /* \"contracts/overflow-batch-demo/BEC_Fixed.sol\":462:492  balances[msg.sender] >= amount */\n      lt\n      iszero\n        /* \"contracts/overflow-batch-demo/BEC_Fixed.sol\":448:492  _value > 0 && balances[msg.sender] >= amount */\n    tag_22:\n        /* \"contracts/overflow-batch-demo/BEC_Fixed.sol\":440:493  require(_value > 0 && balances[msg.sender] >= amount) */\n      tag_23\n      jumpi\n        /* \"--CODEGEN--\":12:13   */\n      0x00\n        /* \"--CODEGEN--\":9:10   */\n      dup1\n        /* \"--CODEGEN--\":2:14   */\n      revert\n        /* \"contracts/overflow-batch-demo/BEC_Fixed.sol\":440:493  require(_value > 0 && balances[msg.sender] >= amount) */\n    tag_23:\n        /* \"contracts/overflow-batch-demo/BEC_Fixed.sol\":525:567  SafeMath.sub(balances[msg.sender], amount) */\n      tag_24\n        /* \"contracts/overflow-batch-demo/BEC_Fixed.sol\":538:546  balances */\n      0x00\n        /* \"contracts/overflow-batch-demo/BEC_Fixed.sol\":538:558  balances[msg.sender] */\n      dup1\n        /* \"contracts/overflow-batch-demo/BEC_Fixed.sol\":547:557  msg.sender */\n      caller\n        /* \"contracts/overflow-batch-demo/BEC_Fixed.sol\":538:558  balances[msg.sender] */\n      0xffffffffffffffffffffffffffffffffffffffff\n      and\n      0xffffffffffffffffffffffffffffffffffffffff\n      and\n      dup2\n      mstore\n      0x20\n      add\n      swap1\n      dup2\n      mstore\n      0x20\n      add\n      0x00\n      keccak256\n      sload\n        /* \"contracts/overflow-batch-demo/BEC_Fixed.sol\":560:566  amount */\n      dup3\n        /* \"contracts/overflow-batch-demo/BEC_Fixed.sol\":525:537  SafeMath.sub */\n      tag_25\n        /* \"contracts/overflow-batch-demo/BEC_Fixed.sol\":525:567  SafeMath.sub(balances[msg.sender], amount) */\n      jump\t// in\n    tag_24:\n        /* \"contracts/overflow-batch-demo/BEC_Fixed.sol\":502:510  balances */\n      0x00\n        /* \"contracts/overflow-batch-demo/BEC_Fixed.sol\":502:522  balances[msg.sender] */\n      dup1\n        /* \"contracts/overflow-batch-demo/BEC_Fixed.sol\":511:521  msg.sender */\n      caller\n        /* \"contracts/overflow-batch-demo/BEC_Fixed.sol\":502:522  balances[msg.sender] */\n      0xffffffffffffffffffffffffffffffffffffffff\n      and\n      0xffffffffffffffffffffffffffffffffffffffff\n      and\n      dup2\n      mstore\n      0x20\n      add\n      swap1\n      dup2\n      mstore\n      0x20\n      add\n      0x00\n      keccak256\n        /* \"contracts/overflow-batch-demo/BEC_Fixed.sol\":502:567  balances[msg.sender] = SafeMath.sub(balances[msg.sender], amount) */\n      dup2\n      swap1\n      sstore\n      pop\n        /* \"contracts/overflow-batch-demo/BEC_Fixed.sol\":579:585  uint i */\n      0x00\n        /* \"contracts/overflow-batch-demo/BEC_Fixed.sol\":588:589  0 */\n      dup1\n        /* \"contracts/overflow-batch-demo/BEC_Fixed.sol\":579:589  uint i = 0 */\n      swap1\n      pop\n        /* \"contracts/overflow-batch-demo/BEC_Fixed.sol\":574:840  for (uint i = 0; i < cnt; i++) {\r... */\n    tag_26:\n        /* \"contracts/overflow-batch-demo/BEC_Fixed.sol\":595:598  cnt */\n      dup3\n        /* \"contracts/overflow-batch-demo/BEC_Fixed.sol\":591:592  i */\n      dup2\n        /* \"contracts/overflow-batch-demo/BEC_Fixed.sol\":591:598  i < cnt */\n      lt\n        /* \"contracts/overflow-batch-demo/BEC_Fixed.sol\":574:840  for (uint i = 0; i < cnt; i++) {\r... */\n      iszero\n      tag_27\n      jumpi\n        /* \"contracts/overflow-batch-demo/BEC_Fixed.sol\":642:687  SafeMath.add(balances[_receivers[i]], _value) */\n      tag_29\n        /* \"contracts/overflow-batch-demo/BEC_Fixed.sol\":655:663  balances */\n      0x00\n        /* \"contracts/overflow-batch-demo/BEC_Fixed.sol\":655:678  balances[_receivers[i]] */\n      dup1\n        /* \"contracts/overflow-batch-demo/BEC_Fixed.sol\":664:674  _receivers */\n      dup9\n        /* \"contracts/overflow-batch-demo/BEC_Fixed.sol\":675:676  i */\n      dup5\n        /* \"contracts/overflow-batch-demo/BEC_Fixed.sol\":664:677  _receivers[i] */\n      dup2\n      mload\n      dup2\n      lt\n      tag_30\n      jumpi\n      invalid\n    tag_30:\n      0x20\n      mul\n      0x20\n      add\n      add\n      mload\n        /* \"contracts/overflow-batch-demo/BEC_Fixed.sol\":655:678  balances[_receivers[i]] */\n      0xffffffffffffffffffffffffffffffffffffffff\n      and\n      0xffffffffffffffffffffffffffffffffffffffff\n      and\n      dup2\n      mstore\n      0x20\n      add\n      swap1\n      dup2\n      mstore\n      0x20\n      add\n      0x00\n      keccak256\n      sload\n        /* \"contracts/overflow-batch-demo/BEC_Fixed.sol\":680:686  _value */\n      dup7\n        /* \"contracts/overflow-batch-demo/BEC_Fixed.sol\":642:654  SafeMath.add */\n      tag_31\n        /* \"contracts/overflow-batch-demo/BEC_Fixed.sol\":642:687  SafeMath.add(balances[_receivers[i]], _value) */\n      jump\t// in\n    tag_29:\n        /* \"contracts/overflow-batch-demo/BEC_Fixed.sol\":616:624  balances */\n      0x00\n        /* \"contracts/overflow-batch-demo/BEC_Fixed.sol\":616:639  balances[_receivers[i]] */\n      dup1\n        /* \"contracts/overflow-batch-demo/BEC_Fixed.sol\":625:635  _receivers */\n      dup9\n        /* \"contracts/overflow-batch-demo/BEC_Fixed.sol\":636:637  i */\n      dup5\n        /* \"contracts/overflow-batch-demo/BEC_Fixed.sol\":625:638  _receivers[i] */\n      dup2\n      mload\n      dup2\n      lt\n      tag_32\n      jumpi\n      invalid\n    tag_32:\n      0x20\n      mul\n      0x20\n      add\n      add\n      mload\n        /* \"contracts/overflow-batch-demo/BEC_Fixed.sol\":616:639  balances[_receivers[i]] */\n      0xffffffffffffffffffffffffffffffffffffffff\n      and\n      0xffffffffffffffffffffffffffffffffffffffff\n      and\n      dup2\n      mstore\n      0x20\n      add\n      swap1\n      dup2\n      mstore\n      0x20\n      add\n      0x00\n      keccak256\n        /* \"contracts/overflow-batch-demo/BEC_Fixed.sol\":616:687  balances[_receivers[i]] = SafeMath.add(balances[_receivers[i]], _value) */\n      dup2\n      swap1\n      sstore\n      pop\n        /* \"contracts/overflow-batch-demo/BEC_Fixed.sol\":600:603  i++ */\n      dup1\n      dup1\n      0x01\n      add\n      swap2\n      pop\n      pop\n        /* \"contracts/overflow-batch-demo/BEC_Fixed.sol\":574:840  for (uint i = 0; i < cnt; i++) {\r... */\n      jump(tag_26)\n    tag_27:\n      pop\n        /* \"contracts/overflow-batch-demo/BEC_Fixed.sol\":853:857  true */\n      0x01\n        /* \"contracts/overflow-batch-demo/BEC_Fixed.sol\":846:857  return true */\n      swap3\n      pop\n      pop\n      pop\n        /* \"contracts/overflow-batch-demo/BEC_Fixed.sol\":206:863  function batchTransfer(address[] memory _receivers, uint256 _value) public payable returns (bool) {\r... */\n      swap3\n      swap2\n      pop\n      pop\n      jump\t// out\n        /* \"contracts/overflow-batch-demo/BEC_Fixed.sol\":869:949  function deposit() public payable {\r... */\n    tag_15:\n        /* \"contracts/overflow-batch-demo/BEC_Fixed.sol\":934:943  msg.value */\n      callvalue\n        /* \"contracts/overflow-batch-demo/BEC_Fixed.sol\":910:918  balances */\n      0x00\n        /* \"contracts/overflow-batch-demo/BEC_Fixed.sol\":910:930  balances[msg.sender] */\n      dup1\n        /* \"contracts/overflow-batch-demo/BEC_Fixed.sol\":919:929  msg.sender */\n      caller\n        /* \"contracts/overflow-batch-demo/BEC_Fixed.sol\":910:930  balances[msg.sender] */\n      0xffffffffffffffffffffffffffffffffffffffff\n      and\n      0xffffffffffffffffffffffffffffffffffffffff\n      and\n      dup2\n      mstore\n      0x20\n      add\n      swap1\n      dup2\n      mstore\n      0x20\n      add\n      0x00\n      keccak256\n      0x00\n        /* \"contracts/overflow-batch-demo/BEC_Fixed.sol\":910:943  balances[msg.sender] += msg.value */\n      dup3\n      dup3\n      sload\n      add\n      swap3\n      pop\n      pop\n      dup2\n      swap1\n      sstore\n      pop\n        /* \"contracts/overflow-batch-demo/BEC_Fixed.sol\":869:949  function deposit() public payable {\r... */\n      jump\t// out\n        /* \"https://github.com/OpenZeppelin/openzeppelin-contracts/blob/v3.4.0/contracts/math/SafeMath.sol\":3538:3753  function mul(uint256 a, uint256 b) internal pure returns (uint256) {... */\n    tag_19:\n        /* \"https://github.com/OpenZeppelin/openzeppelin-contracts/blob/v3.4.0/contracts/math/SafeMath.sol\":3596:3603  uint256 */\n      0x00\n        /* \"https://github.com/OpenZeppelin/openzeppelin-contracts/blob/v3.4.0/contracts/math/SafeMath.sol\":3624:3625  0 */\n      dup1\n        /* \"https://github.com/OpenZeppelin/openzeppelin-contracts/blob/v3.4.0/contracts/math/SafeMath.sol\":3619:3620  a */\n      dup4\n        /* \"https://github.com/OpenZeppelin/openzeppelin-contracts/blob/v3.4.0/contracts/math/SafeMath.sol\":3619:3625  a == 0 */\n      eq\n        /* \"https://github.com/OpenZeppelin/openzeppelin-contracts/blob/v3.4.0/contracts/math/SafeMath.sol\":3615:3635  if (a == 0) return 0 */\n      iszero\n      tag_35\n      jumpi\n        /* \"https://github.com/OpenZeppelin/openzeppelin-contracts/blob/v3.4.0/contracts/math/SafeMath.sol\":3634:3635  0 */\n      0x00\n        /* \"https://github.com/OpenZeppelin/openzeppelin-contracts/blob/v3.4.0/contracts/math/SafeMath.sol\":3627:3635  return 0 */\n      swap1\n      pop\n      jump(tag_34)\n        /* \"https://github.com/OpenZeppelin/openzeppelin-contracts/blob/v3.4.0/contracts/math/SafeMath.sol\":3615:3635  if (a == 0) return 0 */\n    tag_35:\n        /* \"https://github.com/OpenZeppelin/openzeppelin-contracts/blob/v3.4.0/contracts/math/SafeMath.sol\":3645:3654  uint256 c */\n      0x00\n        /* \"https://github.com/OpenZeppelin/openzeppelin-contracts/blob/v3.4.0/contracts/math/SafeMath.sol\":3661:3662  b */\n      dup3\n        /* \"https://github.com/OpenZeppelin/openzeppelin-contracts/blob/v3.4.0/contracts/math/SafeMath.sol\":3657:3658  a */\n      dup5\n        /* \"https://github.com/OpenZeppelin/openzeppelin-contracts/blob/v3.4.0/contracts/math/SafeMath.sol\":3657:3662  a * b */\n      mul\n        /* \"https://github.com/OpenZeppelin/openzeppelin-contracts/blob/v3.4.0/contracts/math/SafeMath.sol\":3645:3662  uint256 c = a * b */\n      swap1\n      pop\n        /* \"https://github.com/OpenZeppelin/openzeppelin-contracts/blob/v3.4.0/contracts/math/SafeMath.sol\":3689:3690  b */\n      dup3\n        /* \"https://github.com/OpenZeppelin/openzeppelin-contracts/blob/v3.4.0/contracts/math/SafeMath.sol\":3684:3685  a */\n      dup5\n        /* \"https://github.com/OpenZeppelin/openzeppelin-contracts/blob/v3.4.0/contracts/math/SafeMath.sol\":3680:3681  c */\n      dup3\n        /* \"https://github.com/OpenZeppelin/openzeppelin-contracts/blob/v3.4.0/contracts/math/SafeMath.sol\":3680:3685  c / a */\n      dup2\n      tag_36\n      jumpi\n      invalid\n    tag_36:\n      div\n        /* \"https://github.com/OpenZeppelin/openzeppelin-contracts/blob/v3.4.0/contracts/math/SafeMath.sol\":3680:3690  c / a == b */\n      eq\n        /* \"https://github.com/OpenZeppelin/openzeppelin-contracts/blob/v3.4.0/contracts/math/SafeMath.sol\":3672:3728  require(c / a == b, \"SafeMath: multiplication overflow\") */\n      tag_37\n      jumpi\n      mload(0x40)\n      0x08c379a000000000000000000000000000000000000000000000000000000000\n      dup2\n      mstore\n      0x04\n      add\n      dup1\n      dup1\n      0x20\n      add\n      dup3\n      dup2\n      sub\n      dup3\n      mstore\n      0x21\n      dup2\n      mstore\n      0x20\n      add\n      dup1\n      data_9113bb53c2876a3805b2c9242029423fc540a728243ce887ab24c82cf119fba3\n      0x21\n      swap2\n      codecopy\n      0x40\n      add\n      swap2\n      pop\n      pop\n      mload(0x40)\n      dup1\n      swap2\n      sub\n      swap1\n      revert\n    tag_37:\n        /* \"https://github.com/OpenZeppelin/openzeppelin-contracts/blob/v3.4.0/contracts/math/SafeMath.sol\":3745:3746  c */\n      dup1\n        /* \"https://github.com/OpenZeppelin/openzeppelin-contracts/blob/v3.4.0/contracts/math/SafeMath.sol\":3738:3746  return c */\n      swap2\n      pop\n      pop\n        /* \"https://github.com/OpenZeppelin/openzeppelin-contracts/blob/v3.4.0/contracts/math/SafeMath.sol\":3538:3753  function mul(uint256 a, uint256 b) internal pure returns (uint256) {... */\n    tag_34:\n      swap3\n      swap2\n      pop\n      pop\n      jump\t// out\n        /* \"https://github.com/OpenZeppelin/openzeppelin-contracts/blob/v3.4.0/contracts/math/SafeMath.sol\":3136:3291  function sub(uint256 a, uint256 b) internal pure returns (uint256) {... */\n    tag_25:\n        /* \"https://github.com/OpenZeppelin/openzeppelin-contracts/blob/v3.4.0/contracts/math/SafeMath.sol\":3194:3201  uint256 */\n      0x00\n        /* \"https://github.com/OpenZeppelin/openzeppelin-contracts/blob/v3.4.0/contracts/math/SafeMath.sol\":3226:3227  a */\n      dup3\n        /* \"https://github.com/OpenZeppelin/openzeppelin-contracts/blob/v3.4.0/contracts/math/SafeMath.sol\":3221:3222  b */\n      dup3\n        /* \"https://github.com/OpenZeppelin/openzeppelin-contracts/blob/v3.4.0/contracts/math/SafeMath.sol\":3221:3227  b <= a */\n      gt\n      iszero\n        /* \"https://github.com/OpenZeppelin/openzeppelin-contracts/blob/v3.4.0/contracts/math/SafeMath.sol\":3213:3262  require(b <= a, \"SafeMath: subtraction overflow\") */\n      tag_39\n      jumpi\n      mload(0x40)\n      0x08c379a000000000000000000000000000000000000000000000000000000000\n      dup2\n      mstore\n      0x04\n      add\n      dup1\n      dup1\n      0x20\n      add\n      dup3\n      dup2\n      sub\n      dup3\n      mstore\n      0x1e\n      dup2\n      mstore\n      0x20\n      add\n      dup1\n      0x536166654d6174683a207375627472616374696f6e206f766572666c6f770000\n      dup2\n      mstore\n      pop\n      0x20\n      add\n      swap2\n      pop\n      pop\n      mload(0x40)\n      dup1\n      swap2\n      sub\n      swap1\n      revert\n    tag_39:\n        /* \"https://github.com/OpenZeppelin/openzeppelin-contracts/blob/v3.4.0/contracts/math/SafeMath.sol\":3283:3284  b */\n      dup2\n        /* \"https://github.com/OpenZeppelin/openzeppelin-contracts/blob/v3.4.0/contracts/math/SafeMath.sol\":3279:3280  a */\n      dup4\n        /* \"https://github.com/OpenZeppelin/openzeppelin-contracts/blob/v3.4.0/contracts/math/SafeMath.sol\":3279:3284  a - b */\n      sub\n        /* \"https://github.com/OpenZeppelin/openzeppelin-contracts/blob/v3.4.0/contracts/math/SafeMath.sol\":3272:3284  return a - b */\n      swap1\n      pop\n        /* \"https://github.com/OpenZeppelin/openzeppelin-contracts/blob/v3.4.0/contracts/math/SafeMath.sol\":3136:3291  function sub(uint256 a, uint256 b) internal pure returns (uint256) {... */\n      swap3\n      swap2\n      pop\n      pop\n      jump\t// out\n        /* \"https://github.com/OpenZeppelin/openzeppelin-contracts/blob/v3.4.0/contracts/math/SafeMath.sol\":2690:2865  function add(uint256 a, uint256 b) internal pure returns (uint256) {... */\n    tag_31:\n        /* \"https://github.com/OpenZeppelin/openzeppelin-contracts/blob/v3.4.0/contracts/math/SafeMath.sol\":2748:2755  uint256 */\n      0x00\n        /* \"https://github.com/OpenZeppelin/openzeppelin-contracts/blob/v3.4.0/contracts/math/SafeMath.sol\":2767:2776  uint256 c */\n      dup1\n        /* \"https://github.com/OpenZeppelin/openzeppelin-contracts/blob/v3.4.0/contracts/math/SafeMath.sol\":2783:2784  b */\n      dup3\n        /* \"https://github.com/OpenZeppelin/openzeppelin-contracts/blob/v3.4.0/contracts/math/SafeMath.sol\":2779:2780  a */\n      dup5\n        /* \"https://github.com/OpenZeppelin/openzeppelin-contracts/blob/v3.4.0/contracts/math/SafeMath.sol\":2779:2784  a + b */\n      add\n        /* \"https://github.com/OpenZeppelin/openzeppelin-contracts/blob/v3.4.0/contracts/math/SafeMath.sol\":2767:2784  uint256 c = a + b */\n      swap1\n      pop\n        /* \"https://github.com/OpenZeppelin/openzeppelin-contracts/blob/v3.4.0/contracts/math/SafeMath.sol\":2807:2808  a */\n      dup4\n        /* \"https://github.com/OpenZeppelin/openzeppelin-contracts/blob/v3.4.0/contracts/math/SafeMath.sol\":2802:2803  c */\n      dup2\n        /* \"https://github.com/OpenZeppelin/openzeppelin-contracts/blob/v3.4.0/contracts/math/SafeMath.sol\":2802:2808  c >= a */\n      lt\n      iszero\n        /* \"https://github.com/OpenZeppelin/openzeppelin-contracts/blob/v3.4.0/contracts/math/SafeMath.sol\":2794:2840  require(c >= a, \"SafeMath: addition overflow\") */\n      tag_41\n      jumpi\n      mload(0x40)\n      0x08c379a000000000000000000000000000000000000000000000000000000000\n      dup2\n      mstore\n      0x04\n      add\n      dup1\n      dup1\n      0x20\n      add\n      dup3\n      dup2\n      sub\n      dup3\n      mstore\n      0x1b\n      dup2\n      mstore\n      0x20\n      add\n      dup1\n      0x536166654d6174683a206164646974696f6e206f766572666c6f770000000000\n      dup2\n      mstore\n      pop\n      0x20\n      add\n      swap2\n      pop\n      pop\n      mload(0x40)\n      dup1\n      swap2\n      sub\n      swap1\n      revert\n    tag_41:\n        /* \"https://github.com/OpenZeppelin/openzeppelin-contracts/blob/v3.4.0/contracts/math/SafeMath.sol\":2857:2858  c */\n      dup1\n        /* \"https://github.com/OpenZeppelin/openzeppelin-contracts/blob/v3.4.0/contracts/math/SafeMath.sol\":2850:2858  return c */\n      swap2\n      pop\n      pop\n        /* \"https://github.com/OpenZeppelin/openzeppelin-contracts/blob/v3.4.0/contracts/math/SafeMath.sol\":2690:2865  function add(uint256 a, uint256 b) internal pure returns (uint256) {... */\n      swap3\n      swap2\n      pop\n      pop\n      jump\t// out\n    stop\n    data_9113bb53c2876a3805b2c9242029423fc540a728243ce887ab24c82cf119fba3 536166654d6174683a206d756c7469706c69636174696f6e206f766572666c6f77\n\n    auxdata: 0xa2646970667358221220eae0be3dbfc1b287826c8df789c40346c13f3501cfbd5827fc9a8af2c8b0ff4464736f6c63430006060033\n}\n",
				"bytecode": {
					"linkReferences": {},
					"object": "608060405234801561001057600080fd5b506105ac806100206000396000f3fe6080604052600436106100345760003560e01c806312065fe01461003957806383f12fec14610064578063d0e30db01461013e575b600080fd5b34801561004557600080fd5b5061004e610148565b6040518082815260200191505060405180910390f35b6101246004803603604081101561007a57600080fd5b810190808035906020019064010000000081111561009757600080fd5b8201836020820111156100a957600080fd5b803590602001918460208302840111640100000000831117156100cb57600080fd5b919080806020026020016040519081016040528093929190818152602001838360200280828437600081840152601f19601f8201169050808301925050505050505091929192908035906020019092919050505061018e565b604051808215151515815260200191505060405180910390f35b610146610376565b005b60008060003373ffffffffffffffffffffffffffffffffffffffff1673ffffffffffffffffffffffffffffffffffffffff16815260200190815260200160002054905090565b6000808351905060006101a182856103c4565b90506000821180156101b4575060148211155b6101bd57600080fd5b60008411801561020b5750806000803373ffffffffffffffffffffffffffffffffffffffff1673ffffffffffffffffffffffffffffffffffffffff1681526020019081526020016000205410155b61021457600080fd5b61025c6000803373ffffffffffffffffffffffffffffffffffffffff1673ffffffffffffffffffffffffffffffffffffffff168152602001908152602001600020548261044a565b6000803373ffffffffffffffffffffffffffffffffffffffff1673ffffffffffffffffffffffffffffffffffffffff1681526020019081526020016000208190555060008090505b82811015610369576103076000808884815181106102be57fe5b602002602001015173ffffffffffffffffffffffffffffffffffffffff1673ffffffffffffffffffffffffffffffffffffffff16815260200190815260200160002054866104cd565b60008088848151811061031657fe5b602002602001015173ffffffffffffffffffffffffffffffffffffffff1673ffffffffffffffffffffffffffffffffffffffff1681526020019081526020016000208190555080806001019150506102a4565b5060019250505092915050565b346000803373ffffffffffffffffffffffffffffffffffffffff1673ffffffffffffffffffffffffffffffffffffffff16815260200190815260200160002060008282540192505081905550565b6000808314156103d75760009050610444565b60008284029050828482816103e857fe5b041461043f576040517f08c379a00000000000000000000000000000000000000000000000000000000081526004018080602001828103825260218152602001806105566021913960400191505060405180910390fd5b809150505b92915050565b6000828211156104c2576040517f08c379a000000000000000000000000000000000000000000000000000000000815260040180806020018281038252601e8152602001807f536166654d6174683a207375627472616374696f6e206f766572666c6f77000081525060200191505060405180910390fd5b818303905092915050565b60008082840190508381101561054b576040517f08c379a000000000000000000000000000000000000000000000000000000000815260040180806020018281038252601b8152602001807f536166654d6174683a206164646974696f6e206f766572666c6f77000000000081525060200191505060405180910390fd5b809150509291505056fe536166654d6174683a206d756c7469706c69636174696f6e206f766572666c6f77a2646970667358221220eae0be3dbfc1b287826c8df789c40346c13f3501cfbd5827fc9a8af2c8b0ff4464736f6c63430006060033",
					"opcodes": "PUSH1 0x80 PUSH1 0x40 MSTORE CALLVALUE DUP1 ISZERO PUSH2 0x10 JUMPI PUSH1 0x0 DUP1 REVERT JUMPDEST POP PUSH2 0x5AC DUP1 PUSH2 0x20 PUSH1 0x0 CODECOPY PUSH1 0x0 RETURN INVALID PUSH1 0x80 PUSH1 0x40 MSTORE PUSH1 0x4 CALLDATASIZE LT PUSH2 0x34 JUMPI PUSH1 0x0 CALLDATALOAD PUSH1 0xE0 SHR DUP1 PUSH4 0x12065FE0 EQ PUSH2 0x39 JUMPI DUP1 PUSH4 0x83F12FEC EQ PUSH2 0x64 JUMPI DUP1 PUSH4 0xD0E30DB0 EQ PUSH2 0x13E JUMPI JUMPDEST PUSH1 0x0 DUP1 REVERT JUMPDEST CALLVALUE DUP1 ISZERO PUSH2 0x45 JUMPI PUSH1 0x0 DUP1 REVERT JUMPDEST POP PUSH2 0x4E PUSH2 0x148 JUMP JUMPDEST PUSH1 0x40 MLOAD DUP1 DUP3 DUP2 MSTORE PUSH1 0x20 ADD SWAP2 POP POP PUSH1 0x40 MLOAD DUP1 SWAP2 SUB SWAP1 RETURN JUMPDEST PUSH2 0x124 PUSH1 0x4 DUP1 CALLDATASIZE SUB PUSH1 0x40 DUP2 LT ISZERO PUSH2 0x7A JUMPI PUSH1 0x0 DUP1 REVERT JUMPDEST DUP2 ADD SWAP1 DUP1 DUP1 CALLDATALOAD SWAP1 PUSH1 0x20 ADD SWAP1 PUSH5 0x100000000 DUP2 GT ISZERO PUSH2 0x97 JUMPI PUSH1 0x0 DUP1 REVERT JUMPDEST DUP3 ADD DUP4 PUSH1 0x20 DUP3 ADD GT ISZERO PUSH2 0xA9 JUMPI PUSH1 0x0 DUP1 REVERT JUMPDEST DUP1 CALLDATALOAD SWAP1 PUSH1 0x20 ADD SWAP2 DUP5 PUSH1 0x20 DUP4 MUL DUP5 ADD GT PUSH5 0x100000000 DUP4 GT OR ISZERO PUSH2 0xCB JUMPI PUSH1 0x0 DUP1 REVERT JUMPDEST SWAP2 SWAP1 DUP1 DUP1 PUSH1 0x20 MUL PUSH1 0x20 ADD PUSH1 0x40 MLOAD SWAP1 DUP2 ADD PUSH1 0x40 MSTORE DUP1 SWAP4 SWAP3 SWAP2 SWAP1 DUP2 DUP2 MSTORE PUSH1 0x20 ADD DUP4 DUP4 PUSH1 0x20 MUL DUP1 DUP3 DUP5 CALLDATACOPY PUSH1 0x0 DUP2 DUP5 ADD MSTORE PUSH1 0x1F NOT PUSH1 0x1F DUP3 ADD AND SWAP1 POP DUP1 DUP4 ADD SWAP3 POP POP POP POP POP POP POP SWAP2 SWAP3 SWAP2 SWAP3 SWAP1 DUP1 CALLDATALOAD SWAP1 PUSH1 0x20 ADD SWAP1 SWAP3 SWAP2 SWAP1 POP POP POP PUSH2 0x18E JUMP JUMPDEST PUSH1 0x40 MLOAD DUP1 DUP3 ISZERO ISZERO ISZERO ISZERO DUP2 MSTORE PUSH1 0x20 ADD SWAP2 POP POP PUSH1 0x40 MLOAD DUP1 SWAP2 SUB SWAP1 RETURN JUMPDEST PUSH2 0x146 PUSH2 0x376 JUMP JUMPDEST STOP JUMPDEST PUSH1 0x0 DUP1 PUSH1 0x0 CALLER PUSH20 0xFFFFFFFFFFFFFFFFFFFFFFFFFFFFFFFFFFFFFFFF AND PUSH20 0xFFFFFFFFFFFFFFFFFFFFFFFFFFFFFFFFFFFFFFFF AND DUP2 MSTORE PUSH1 0x20 ADD SWAP1 DUP2 MSTORE PUSH1 0x20 ADD PUSH1 0x0 KECCAK256 SLOAD SWAP1 POP SWAP1 JUMP JUMPDEST PUSH1 0x0 DUP1 DUP4 MLOAD SWAP1 POP PUSH1 0x0 PUSH2 0x1A1 DUP3 DUP6 PUSH2 0x3C4 JUMP JUMPDEST SWAP1 POP PUSH1 0x0 DUP3 GT DUP1 ISZERO PUSH2 0x1B4 JUMPI POP PUSH1 0x14 DUP3 GT ISZERO JUMPDEST PUSH2 0x1BD JUMPI PUSH1 0x0 DUP1 REVERT JUMPDEST PUSH1 0x0 DUP5 GT DUP1 ISZERO PUSH2 0x20B JUMPI POP DUP1 PUSH1 0x0 DUP1 CALLER PUSH20 0xFFFFFFFFFFFFFFFFFFFFFFFFFFFFFFFFFFFFFFFF AND PUSH20 0xFFFFFFFFFFFFFFFFFFFFFFFFFFFFFFFFFFFFFFFF AND DUP2 MSTORE PUSH1 0x20 ADD SWAP1 DUP2 MSTORE PUSH1 0x20 ADD PUSH1 0x0 KECCAK256 SLOAD LT ISZERO JUMPDEST PUSH2 0x214 JUMPI PUSH1 0x0 DUP1 REVERT JUMPDEST PUSH2 0x25C PUSH1 0x0 DUP1 CALLER PUSH20 0xFFFFFFFFFFFFFFFFFFFFFFFFFFFFFFFFFFFFFFFF AND PUSH20 0xFFFFFFFFFFFFFFFFFFFFFFFFFFFFFFFFFFFFFFFF AND DUP2 MSTORE PUSH1 0x20 ADD SWAP1 DUP2 MSTORE PUSH1 0x20 ADD PUSH1 0x0 KECCAK256 SLOAD DUP3 PUSH2 0x44A JUMP JUMPDEST PUSH1 0x0 DUP1 CALLER PUSH20 0xFFFFFFFFFFFFFFFFFFFFFFFFFFFFFFFFFFFFFFFF AND PUSH20 0xFFFFFFFFFFFFFFFFFFFFFFFFFFFFFFFFFFFFFFFF AND DUP2 MSTORE PUSH1 0x20 ADD SWAP1 DUP2 MSTORE PUSH1 0x20 ADD PUSH1 0x0 KECCAK256 DUP2 SWAP1 SSTORE POP PUSH1 0x0 DUP1 SWAP1 POP JUMPDEST DUP3 DUP2 LT ISZERO PUSH2 0x369 JUMPI PUSH2 0x307 PUSH1 0x0 DUP1 DUP9 DUP5 DUP2 MLOAD DUP2 LT PUSH2 0x2BE JUMPI INVALID JUMPDEST PUSH1 0x20 MUL PUSH1 0x20 ADD ADD MLOAD PUSH20 0xFFFFFFFFFFFFFFFFFFFFFFFFFFFFFFFFFFFFFFFF AND PUSH20 0xFFFFFFFFFFFFFFFFFFFFFFFFFFFFFFFFFFFFFFFF AND DUP2 MSTORE PUSH1 0x20 ADD SWAP1 DUP2 MSTORE PUSH1 0x20 ADD PUSH1 0x0 KECCAK256 SLOAD DUP7 PUSH2 0x4CD JUMP JUMPDEST PUSH1 0x0 DUP1 DUP9 DUP5 DUP2 MLOAD DUP2 LT PUSH2 0x316 JUMPI INVALID JUMPDEST PUSH1 0x20 MUL PUSH1 0x20 ADD ADD MLOAD PUSH20 0xFFFFFFFFFFFFFFFFFFFFFFFFFFFFFFFFFFFFFFFF AND PUSH20 0xFFFFFFFFFFFFFFFFFFFFFFFFFFFFFFFFFFFFFFFF AND DUP2 MSTORE PUSH1 0x20 ADD SWAP1 DUP2 MSTORE PUSH1 0x20 ADD PUSH1 0x0 KECCAK256 DUP2 SWAP1 SSTORE POP DUP1 DUP1 PUSH1 0x1 ADD SWAP2 POP POP PUSH2 0x2A4 JUMP JUMPDEST POP PUSH1 0x1 SWAP3 POP POP POP SWAP3 SWAP2 POP POP JUMP JUMPDEST CALLVALUE PUSH1 0x0 DUP1 CALLER PUSH20 0xFFFFFFFFFFFFFFFFFFFFFFFFFFFFFFFFFFFFFFFF AND PUSH20 0xFFFFFFFFFFFFFFFFFFFFFFFFFFFFFFFFFFFFFFFF AND DUP2 MSTORE PUSH1 0x20 ADD SWAP1 DUP2 MSTORE PUSH1 0x20 ADD PUSH1 0x0 KECCAK256 PUSH1 0x0 DUP3 DUP3 SLOAD ADD SWAP3 POP POP DUP2 SWAP1 SSTORE POP JUMP JUMPDEST PUSH1 0x0 DUP1 DUP4 EQ ISZERO PUSH2 0x3D7 JUMPI PUSH1 0x0 SWAP1 POP PUSH2 0x444 JUMP JUMPDEST PUSH1 0x0 DUP3 DUP5 MUL SWAP1 POP DUP3 DUP5 DUP3 DUP2 PUSH2 0x3E8 JUMPI INVALID JUMPDEST DIV EQ PUSH2 0x43F JUMPI PUSH1 0x40 MLOAD PUSH32 0x8C379A000000000000000000000000000000000000000000000000000000000 DUP2 MSTORE PUSH1 0x4 ADD DUP1 DUP1 PUSH1 0x20 ADD DUP3 DUP2 SUB DUP3 MSTORE PUSH1 0x21 DUP2 MSTORE PUSH1 0x20 ADD DUP1 PUSH2 0x556 PUSH1 0x21 SWAP2 CODECOPY PUSH1 0x40 ADD SWAP2 POP POP PUSH1 0x40 MLOAD DUP1 SWAP2 SUB SWAP1 REVERT JUMPDEST DUP1 SWAP2 POP POP JUMPDEST SWAP3 SWAP2 POP POP JUMP JUMPDEST PUSH1 0x0 DUP3 DUP3 GT ISZERO PUSH2 0x4C2 JUMPI PUSH1 0x40 MLOAD PUSH32 0x8C379A000000000000000000000000000000000000000000000000000000000 DUP2 MSTORE PUSH1 0x4 ADD DUP1 DUP1 PUSH1 0x20 ADD DUP3 DUP2 SUB DUP3 MSTORE PUSH1 0x1E DUP2 MSTORE PUSH1 0x20 ADD DUP1 PUSH32 0x536166654D6174683A207375627472616374696F6E206F766572666C6F770000 DUP2 MSTORE POP PUSH1 0x20 ADD SWAP2 POP POP PUSH1 0x40 MLOAD DUP1 SWAP2 SUB SWAP1 REVERT JUMPDEST DUP2 DUP4 SUB SWAP1 POP SWAP3 SWAP2 POP POP JUMP JUMPDEST PUSH1 0x0 DUP1 DUP3 DUP5 ADD SWAP1 POP DUP4 DUP2 LT ISZERO PUSH2 0x54B JUMPI PUSH1 0x40 MLOAD PUSH32 0x8C379A000000000000000000000000000000000000000000000000000000000 DUP2 MSTORE PUSH1 0x4 ADD DUP1 DUP1 PUSH1 0x20 ADD DUP3 DUP2 SUB DUP3 MSTORE PUSH1 0x1B DUP2 MSTORE PUSH1 0x20 ADD DUP1 PUSH32 0x536166654D6174683A206164646974696F6E206F766572666C6F770000000000 DUP2 MSTORE POP PUSH1 0x20 ADD SWAP2 POP POP PUSH1 0x40 MLOAD DUP1 SWAP2 SUB SWAP1 REVERT JUMPDEST DUP1 SWAP2 POP POP SWAP3 SWAP2 POP POP JUMP INVALID MSTORE8 PUSH2 0x6665 0x4D PUSH2 0x7468 GASPRICE KECCAK256 PUSH14 0x756C7469706C69636174696F6E20 PUSH16 0x766572666C6F77A26469706673582212 KECCAK256 0xEA 0xE0 0xBE RETURNDATASIZE 0xBF 0xC1 0xB2 DUP8 DUP3 PUSH13 0x8DF789C40346C13F3501CFBD58 0x27 0xFC SWAP11 DUP11 CALLCODE 0xC8 0xB0 SELFDESTRUCT DIFFICULTY PUSH5 0x736F6C6343 STOP MOD MOD STOP CALLER "
				},
				"gasEstimates": {
					"creation": {
						"codeDepositCost": "290400",
						"executionCost": "331",
						"totalCost": "290731"
					},
					"external": {
						"batchTransfer(address[],uint256)": "infinite",
						"deposit()": "21063",
						"getBalance()": "1080"
					}
				},
				"methodIdentifiers": {
					"batchTransfer(address[],uint256)": "83f12fec",
					"deposit()": "d0e30db0",
					"getBalance()": "12065fe0"
				}
			},
			"storageLayout": {
				"storage": [
					{
						"astId": 6,
						"contract": "contracts/overflow-batch-demo/BEC_Fixed.sol:BEC_Vuln",
						"label": "balances",
						"offset": 0,
						"slot": "0",
						"type": "t_mapping(t_address,t_uint256)"
					}
				],
				"types": {
					"t_address": {
						"encoding": "inplace",
						"label": "address",
						"numberOfBytes": "20"
					},
					"t_mapping(t_address,t_uint256)": {
						"encoding": "mapping",
						"key": "t_address",
						"label": "mapping(address => uint256)",
						"numberOfBytes": "32",
						"value": "t_uint256"
					},
					"t_uint256": {
						"encoding": "inplace",
						"label": "uint256",
						"numberOfBytes": "32"
					}
				}
			},
			"userdoc": {
				"methods": {}
			}
		}
	}
}